:1000000000180020C1000000F9380000BD380000D1
:10001000BD380000BD380000BD380000BD3800000C
:10002000BD380000BD380000BD380000F9380000C0
:10003000F9380000BD380000F9380000AD38000084
:10004000F9380000F9380000F9380000F9380000EC
:10005000F9380000F9380000F9380000F9380000DC
:1000600039150000F9380000F9380000F9380000AF
:100070000D260000E13D0000A1430000F93800001A
:10008000F9380000F9380000F9380000F9380000AC
:10009000F9380000F9380000F9380000F93800009C
:1000A0004D280000F9380000F9380000F938000048
:1000B000F9380000F9380000F9380000F93800007C
:1000C000F8B503F01DFC0821474A484B1A60484A1E
:1000D000484B1A60484A494B1A60494B1A780A4201
:1000E00002D01A780A431A702A22464B46481A70E0
:1000F00000234649464C1A188A4203D2E558043375
:100100001560F8E70021434B434A934201D202C3F2
:10011000FBE70023414A424958589446985004331B
:10012000C02BF9D100210326FF2580248A083D4BEE
:100130009200D2180B002F003340DB009F40106864
:100140000131B84307002000984003003B4313608F
:100150002029EBD16246344B1A608A22334B1A7045
:10016000334B663A5A707C321A709E3A9979114232
:10017000FCD0102299791142FCD10C209A792C499B
:100180000240082AFAD1053A0A713D324A71203AF2
:1001900099791142FCD0402299791142FCD025492D
:1001A000254A11602021224A117014399A790A4097
:1001B0000C2AFBD1214A224B1A60224A224B1A6098
:1001C0000022224B1A60224B07321A60214A224B2E
:1001D0001A6062B601F0ACFE05F008FC03F096FB75
:1001E00003F006FBFEE7C046300004F03480044014
:1001F000823F0000388004400100000F3C80044032
:1002000002D0074000E007403002002098030020A1
:100210001865000098030020540C002000F9FF1F0F
:100220000000000000E400E008ED00E0005006409F
:10023000004006400000011044800440C000050555
:10024000048004407FBB000014E000E018E000E000
:1002500010E000E00000202020ED00E0FFFFFFFFA5
:10026000FFFFFFFFFFFFFFFFFFFFFFFFFFFFFFFF9E
:10027000FFFFFFFFFFFFFFFFFFFFFFFFFFFFFFFF8E
:10028000FFFFFFFFFFFFFFFFFFFFFFFFFFFFFFFF7E
:10029000FFFFFFFFFFFFFFFFFFFFFFFFFFFFFFFF6E
:1002A000FFFFFFFFFFFFFFFFFFFFFFFFFFFFFFFF5E
:1002B000FFFFFFFFFFFFFFFFFFFFFFFFFFFFFFFF4E
:1002C000FFFFFFFFFFFFFFFFFFFFFFFFFFFFFFFF3E
:1002D000FFFFFFFFFFFFFFFFFFFFFFFFFFFFFFFF2E
:1002E000FFFFFFFFFFFFFFFFFFFFFFFFFFFFFFFF1E
:1002F000FFFFFFFFFFFFFFFFFFFFFFFFFFFFFFFF0E
:10030000FFFFFFFFFFFFFFFFFFFFFFFFFFFFFFFFFD
:10031000FFFFFFFFFFFFFFFFFFFFFFFFFFFFFFFFED
:10032000FFFFFFFFFFFFFFFFFFFFFFFFFFFFFFFFDD
:10033000FFFFFFFFFFFFFFFFFFFFFFFFFFFFFFFFCD
:10034000FFFFFFFFFFFFFFFFFFFFFFFFFFFFFFFFBD
:10035000FFFFFFFFFFFFFFFFFFFFFFFFFFFFFFFFAD
:10036000FFFFFFFFFFFFFFFFFFFFFFFFFFFFFFFF9D
:10037000FFFFFFFFFFFFFFFFFFFFFFFFFFFFFFFF8D
:10038000FFFFFFFFFFFFFFFFFFFFFFFFFFFFFFFF7D
:10039000FFFFFFFFFFFFFFFFFFFFFFFFFFFFFFFF6D
:1003A000FFFFFFFFFFFFFFFFFFFFFFFFFFFFFFFF5D
:1003B000FFFFFFFFFFFFFFFFFFFFFFFFFFFFFFFF4D
:1003C000FFFFFFFFFFFFFFFFFFFFFFFFFFFFFFFF3D
:1003D000FFFFFFFFFFFFFFFFFFFFFFFFFFFFFFFF2D
:1003E000FFFFFFFFFFFFFFFFFFFFFFFFFFFFFFFF1D
:1003F000FFFFFFFFFFFFFFFFFFFFFFFFFFFFFFFF0D
:10040000FFFFFFFFFFFFFFFFFFFFFFFFDEF9FFFF23
:1004100010B5064C2378002B07D1054B002B02D0DA
:10042000044800E000BF0123237010BD98030020A2
:100430000000000018650000084B10B5002B03D029
:100440000749084800E000BF07480368002B00D1B7
:1004500010BD064B002BFBD09847F9E700000000C9
:100460009C03002018650000980300200000000095
:1004700070B5040003F090F80500200003F0AEF81A
:10048000281870BDFA21F8B503262C4B2C4C18689F
:100490002C4D89002278002A4BD02A78324248D04D
:1004A000294F1A683F68D21B182A42D900212748D1
:1004B00001F0B0F90221092001F0C6FCB0270921A2
:1004C000234801F02BF900257F002E001622214C35
:1004D0000936237856437B431F4AF318985C022160
:1004E00001F0B2FC23781D4A7B43F6181A4B1068C2
:1004F000F15CEB00C018013501F010F9072DE4D1D3
:10050000174E0025300001F0DDF8E9B2012230007D
:10051000013501F0B5F80F2DF7D101230221114A61
:1005200023701370104A1170104A1370104A137020
:10053000F8BD1A68121A8A42ACD9B7E7D808002069
:10054000630A0020B00A00204C0C0020780600202E
:10055000E4050020B4030020B55D0000EC05002098
:10056000B5030020B603002008060020B7030020D2
:10057000D4030020F0B5514C8DB0200001F0E2F81A
:1005800000284BD0200001F015F94D4C4D4D0028AE
:1005900007D04D4B4D491B680193019A4C4B1A6093
:1005A0002EE02378002B27D04A4A012B08D111785E
:1005B000002905D0137002222270474A137405E007
:1005C0001370012300222370434B1A72434904A87D
:1005D00003F065F804A908A803F07DF8217808A8BD
:1005E00003F0E0F801002800FFF742FF08A803F03D
:1005F00012F804A803F00FF80123394C394923708D
:1006000004A803F04CF804A908A803F064F82178C2
:1006100008A803F0C7F80100280037E0200001F027
:10062000C5F8061E48D1284F294A3B681268029334
:10063000029B9B1AFA22D20093423DD9284B1D7887
:10064000012D39D1284908A803F029F808A91D4827
:10065000FFF70EFF08A802F0DEFF194C1D4A2378B1
:1006600013701D4A002B1AD11D4925700B701F49AC
:10067000137204A803F013F804A908A803F02BF8D8
:10068000217808A803F08EF801000E48FFF7F0FE6D
:1006900008A802F0C0FF04A802F0BDFF0CE0104B58
:1006A00026701E703B68157003930399104B1960F8
:1006B000104B0A491D70DCE70DB0F0BDE4050020C9
:1006C000B6030020B40A0020D8080020D15C000046
:1006D000E803002008060020F0050020E15C00008F
:1006E000B7030020EA5C00000A5D0000F55C000032
:1006F000D0030020E703002030B50400144B154D53
:10070000197889B0083100222800C9B200F0DFFF53
:100710001149684602F0C3FF694604A802F0DBFFF6
:10072000210004A803F03EF801000C48FFF7A0FEEA
:1007300004A802F070FF684602F06DFF2100083146
:10074000C9B20122280000F0C2FF09B030BDC04686
:10075000CD030020B5030020205D0000B40A002076
:10076000F7B5194D194E2978194F002918D1194C90
:10077000194823680093009A0368D21AF423FF33C0
:100780009C46164B624501D81A780CE019784A420B
:100790004A411A7023680193019B0360012406E01B
:1007A000C9007A5C0021300000F091FFF6E72B7859
:1007B000E1B2DB00FB181A5D3000013400F087FF66
:1007C000082CF4D1F7BDC046B6030020B5030020C5
:1007D000F0050020D8080020D0030020E703002007
:1007E000F0B591B002AF140008227B601023BA1854
:1007F00005000E00D0189F4902F051FF0822102377
:10080000BA18D1180822DB18BA18D01802F063FF02
:1008100008222023BA18D018290002F0C9FF0100CD
:100820009548FFF725FE08222023BA18D01802F0B9
:10083000F2FE08221023BA18D01802F0ECFE8E4BFC
:10084000681E1D00072800D911E104F037F80422C2
:10085000404F6A788AA7F023884D1B012878884A80
:10086000013800021840FE231043DB052206134026
:1008700002001A43FE233004DB0303401A43100036
:1008800002F08EFB2B78220031007E4801F052F8F6
:10089000EDE0F023794D1B0128787B4A01380002F6
:1008A0001840FE231043DB052206134002001A43C2
:1008B000FE233004DB0303401A43100002F070FBF8
:1008C0002B78220031006F4801F02CF8CFE06B4DFF
:1008D0006C482B782200310001F044F8F02328788E
:1008E0001B01013800021840684B0DE0634D65485C
:1008F0002B782200310001F02DF8F02328781B011D
:10090000013800021840624B1843FE232406DB0521
:100910001C40FE23044320003604DB031E4030430A
:1009200039E0564D57482A78210001F00BF8F023A2
:1009300028781B01013800021840564A0CE04F4D40
:1009400050482A78210001F015F8F02328781B017F
:1009500001380002504A1840FE2302432404DB03FE
:1009600016E0464D21002A78464801F016F8F0239B
:1009700028781B01013800021840FE23474ADB0398
:1009800010432204134002001A43FE236404DB05D3
:100990001C402243100002F003FB68E0404B1B7830
:1009A000002B5DD16A463A600822BD18E8322A70F1
:1009B000AF3A6A70313AAA7077226A71653AEB7081
:1009C0002B71AA716B72023A2B73F7336B73354933
:1009D000A81805F045F82023324910221031E818F4
:1009E00005F03EF81022254BAA181B782E49013B32
:1009F000D25CEA712022AA18D35CAE722B72162345
:100A0000EC7278685843081802797F2A02D1C078BE
:100A100000280AD0786800924343CB18DB787F2205
:100A20000021200002F0ECFDE872EA792B7A0E2119
:100A3000D3186A7A13489B18AA7A9B18EA7A9B18EB
:100A40007F221340FF3AD31A2B732A00002300F0B1
:100A500001FF0E21280002F0EDFA3B689D4606E0FA
:100A60000C21124802F0CCFC280002F0B7FDBD4674
:100A70000FB0F0BD2E5D0000B40A0020340200204B
:100A80000880000078060020099000000AA00000FD
:100A90000BB000000CC000000DD000000EE0000004
:100AA000B4030020AE5C0000B55D0000415D0000B5
:100AB000F0B500244A4D91B02C3528002C3801F0B7
:100AC0005BF82B7A002B00D182E02B68454ADB10C3
:100AD000DBB2A354444AA15C994279D0A354434960
:100AE00004A802F0DCFD04A908A802F0F4FD21002E
:100AF00008A802F05DFE06003D490CA802F0CFFDFB
:100B00000CA9300002F046FE364BE15C02F04AFED2
:100B1000384E01003000FFF7ABFC0CA802F07BFD63
:100B200008A802F078FD04A802F075FD324B334AA4
:100B30001878334B1B78D35C9C461623634303938E
:100B4000B0235B005843039B18182E4B18186346BC
:100B5000C7187B79022B31D12B490CA802F09FFDDD
:100B60000CA93000FFF784FC0CA802F054FD1D4BCB
:100B70007F22E05C052300930023190002F040FD72
:100B8000224FC6B23B78B34222D03000FFF7B4FD0B
:100B9000B021194B3E701F7849004F43184B039901
:100BA0001B78164ACF191749D05CCF190D4A3E1849
:100BB0007178E3B2A25C385C367906E06646094A91
:100BC000805DA25C79783E79E3B20096FFF708FE7B
:100BD00001343835092C00D06FE711B0F0BDC046A4
:100BE000EC030020D5030020DE0300204E5D000052
:100BF0005C5D0000B40A0020B4030020CE5C00005D
:100C0000B6030020B55D0000655D0000CD03002047
:100C1000F0B5A34B95B009330593A24B0733069368
:100C200009230393083B0493039B9F4A9F4E9D18FF
:100C30003368039FED005819093F00F083FD002839
:100C400000D11BE13368581900F0B0FD0400306892
:100C5000401900F0AFFD002800D1ECE0944908A84D
:100C600002F01DFD08A90CA802F035FD39000CA802
:100C700002F09EFD05008F4910A802F010FD10A99A
:100C8000280002F087FD210002F08CFD8A4E010051
:100C90003000FFF7EDFB10A802F0BDFC0CA802F03D
:100CA000BAFC08A802F0B7FC844A854D12782B786C
:100CB00094466146834A505C162203994A43079240
:100CC000B02252005A4307998A187F498A1812188D
:100CD000517901290ED1072264465443714D2C19D4
:100CE000E65D012E00D10021E15561464A43AD1871
:100CF000EC5D3EE003293CD1744910A802F0CFFC22
:100D000010A93000FFF7B4FB10A802F084FC6B4B75
:100D1000634F1A786E49D300FB18002708781F54D8
:100D200004981C546B461B7C0CA80B7065492B78EF
:100D30008A5CB02149004B430799CB186249CB1814
:100D40009B18DB7863492B7002F0A9FC0CA910A852
:100D500002F0C1FC297810A802F024FD0100300047
:100D6000FFF786FB10A802F056FC0CA802F053FC1B
:100D70004AE0B0261627039A760057435E43524B4B
:100D8000BE199E1931188A797F25022A1AD16B461D
:100D9000654372791B7BEDB2B178707800922A00BE
:100DA0001E00FFF71DFDB022454B52001B78534338
:100DB000FF18454B2A00DF193B7B797A0093387A7C
:100DC000330009E06B4665431B7B012A0DD1EAB273
:100DD0007579B17870780095FFF702FD059B1C705E
:100DE0001C72069B1C70DC710EE0EAB24D7809792A
:100DF000305C00912900FFF7F3FC304B284A1B7848
:100E0000DB00D318049A9C5433490CA802F047FC29
:100E10000CA910A802F05FFC210010A802F0C2FC8F
:100E200001002548FFF724FB10A802F0F4FB0CA8F2
:100E300002F0F1FB22E0224B039A1878B0235B000A
:100E400058434B3BFF3B534318181F4B18188279EC
:100E5000002A13D1194B124D1978CB00EB1801253C
:100E60006C40049D5C55174B5D5C6B464419617882
:100E700024791B7B405D0094FFF7B2FC049B013397
:100E80000493039B01330393059B01330593069B56
:100E900001330693039B102B00D0C5E615B0F0BDBF
:100EA000F0050020B8030020F7FFFF1FEC0500202D
:100EB000795D00005C5D0000B40A0020B6030020EC
:100EC000B4030020CE5C0000B55D0000875D00002B
:100ED000D4030020975D0000A75D000010B5FFF768
:100EE00049FBFFF7E5FDFFF793FEFFF739FC002014
:100EF00002F0ECF80028FAD110BDFFFFF8B5B024DD
:100F00003C4F64003B783C4E63433C4D995D01226D
:100F10003B4B280000F050FE28003B780122634341
:100F2000F318997D3830364B00F046FE28003B78A8
:100F300001226343F3182C3319787030304B00F0E2
:100F40003BFE28003B7801226343F31842331978B3
:100F5000A8302B4B00F030FE28003B780122634381
:100F6000F31858331978E030254B00F025FE28009F
:100F70003B7819306343F3186E3319780122204B04
:100F8000FF3000F019FE28003B7851306343F3181E
:100F90008433197801221A4BFF3000F00DFE28002F
:100FA0003B7889306343F3189A3319780122144B44
:100FB000FF3000F001FE28003B78C1305C4334195B
:100FC000B03421780E4B0122FF3000F0F5FD3820BF
:100FD00002F016FC06000500040038362000083434
:100FE00000F095FBB442F9D1064B07481D6000F0B4
:100FF0008EFBF8BDB4030020B55D0000EC030020BB
:101000000AD7233CEC050020E4050020030038301B
:1010100039331B780078181A704702000100383203
:10102000393113780978994204D9591C1170C318C1
:10103000187E01E00120404270470300020038336F
:1010400039321B7812789A4202D9C318187E01E00F
:1010500001204042704770470300002210B55E3304
:101060001B8893420DD004005D342378202B02D9D5
:101070000123037105E05A1C22700122C3183B337F
:101080001970100010BD70B514000200030000209C
:101090005E321288824212D01D0021225D352878EE
:1010A000121A944202D901241C7114003B331818FF
:1010B000220004F0D5FC20002B781B192B7070BD8A
:1010C00043691A685B68126813420FD0084A0369C3
:1010D000914201D81F2205E0064A914201D812220E
:1010E00000E002225A70022203699A717047C046DA
:1010F0007F1A06003F420F000200F8B500230400EB
:1011000038321370537024329370137053704366E7
:101110008366D37040696427016842680D682A437A
:101120000A6022691549937023000C2261336069BB
:101130001E788619337A5343CB185D68737BE0269B
:101140001B02F60033403B432B60230062331B78C5
:10115000C018837C5A43C37D89181B024A681E400D
:101160003E43166006492000FFF7AAFF20232269AC
:101170005371802223699A70F8BDC046E060000078
:10118000A0860100102270B503690400DD78EDB27D
:10119000154203D140222A4004D12BE0DA706B06BD
:1011A000F8D476E004231D403A4B1BD025000022E2
:1011B0005D352A701A70636E934200D09847230001
:1011C0002A783B33002A02D1012129701A70D022DB
:1011D00021698A701B7822691371230001225C3314
:1011E0001A7053E001221A70230039331D702269EE
:1011F000C02330E0602120698379DBB21940602987
:101200000CD140398B438371A36E002B06D0210093
:1012100038310A7022003932107898471023226939
:1012200091780B401BD001231D4013D121002000D9
:101230005C315D300B780078984206D9581CE31871
:1012400008703B331B78137100E01571D0232269BD
:1012500093701BE0C023937023691B7916E0210073
:1012600060310B70202193790B4321009371236926
:1012700039311A790B78D2B21F2B07D8054800787C
:10128000002803D0581CE31808701A76022223693C
:10129000DA7070BD090600201223F0B5202402691F
:1012A0008C46D370036989B099783B4A214201D0BA
:1012B000B42112E011680291029DD978214008D032
:1012C000116803910399491B0F29F6D900229A70DE
:1012D0003AE004005F342170B02120269970136831
:1012E00004690493049DE378334004D0002302266C
:1012F000019320270BE0116805910599491B0429EA
:10130000F1D9A37020E0019B0133DBB2019301000E
:101310005D310978019B994231D9C1183B31097877
:1013200003691971116805690691069BEC78E4B2AE
:10133000210031400DD13C420BD014680794079C2A
:10134000E41A052CF2D9A9708022036904209A704E
:1013500020E01023EE700469E178C9B2194201D18E
:10136000394203D18023A3707C3B09E00123194259
:10137000C9D0019B5A4253410322D31A03E00023F0
:101380006246002A02D0802201698A7000225E3003
:101390000270180009B0F0BDD8080020F0B58FB079
:1013A00002930023040020273830037001300370BB
:1013B000019020691233C3702569AB783B40180057
:1013C000B423002817D15B4E336803960493049B23
:1013D0009C46EB783B400AD06646039B1B6805930E
:1013E000059B9B1B0F2BF4D90023AB7018E020004A
:1013F0005F300370B023AB704E4D26692B680693A7
:1014000020239C46069F6046F37818402B00002856
:101410000AD12B680793079BDB1B042BF3D9B07011
:10142000802223699A7082E001200227490001434B
:10143000C9B2317129680891089E2169C87838407D
:1014400007D11D680995099DAD1B052DF6D988703A
:10145000E6E70223CB7021690F33C878184003D028
:101460006F338B70002062E0002A06D1029A80233D
:10147000002A00D120338B7059E0A823012A00D024
:10148000A0238B7023692B4D1B7900232169280031
:10149000012A25D02868AC460A900A98070002263F
:1014A000C878304008D1664636680B960B9EF61B0E
:1014B000052EF4D9887034E00220013AD2B2C87007
:1014C000012A02D1A8202169887021691F2B05D823
:1014D00009795E1CE3181976F3B2D7E70979D5E7E5
:1014E00002272A680C920C9ECA783A4007D10568F8
:1014F0000D950D9DAD1B052DF6D98A7011E00222C8
:10150000CA702169AE328A7022691F2B05D8127900
:10151000591CE3181A76CBB200E01279029A002A1D
:1015200002D08021226991701800019A13700FB0C7
:10153000F0BDC046D808002010B50248FFF722FED3
:1015400010BDC0460C060020FA21094B89009960A5
:10155000084900220831196007491A7119610749C1
:101560001A7359611900623361310A701A70704739
:101570000C060020986000000060064078600000C3
:10158000084A11001000383139300B780078984241
:1015900004D9581C0870D318187E01E0012040427D
:1015A000C0B270470C06002010B50121FFF774FE91
:1015B00010BDFFFF10B501000148FFF74DFD10BD44
:1015C0000C060020402270B503780F4C5B001343DB
:1015D00022003B321370230001265E331E7023006D
:1015E00005005D3308001E70FFF7E4FF2000FFF7E1
:1015F000DBFF20212B783200194320003300FFF756
:10160000CDFEFFF7BDFF70BD0C06002070B51500C4
:10161000402203780B4C5B00134322003B321370D3
:10162000220001235E321370220008005D32137025
:10163000FFF7C0FF2800FFF7BDFF2000FFF7B4FF52
:1016400070BDC0460C060020F8B5170006AA0600BB
:1016500012781C00072900D91400072530000D401E
:101660002100FFF7AFFF0123AB40002F01D018434B
:1016700000E09843C2B221003000FFF7C7FFF8BD79
:1016800007B553425A410123D2B200930023FFF71A
:10169000DBFF07BD10B50B1C0400072900D9072389
:1016A00023700748FFF728FD2000FF220021FFF7E5
:1016B000ADFFFF2201212000FFF7A8FF10BDC046AB
:1016C0000C06002010B50021FFF7E4FF10BDF8B5AF
:1016D00007230C000E000021A34249411E400E3397
:1016E000591A05001700FFF76DFF0123B340002FC3
:1016F00001D0184300E0984307230021A342494149
:101700000C33C2B2591A2800FFF780FFF8BD00233E
:101710000A22036082808371C371704713B500236E
:101720000400C8B2E071A37100F07CFB002801D076
:101730000323A371024B1B680193019B236013BD1C
:10174000D8080020F0B5040085B0C07900F06AFB2D
:10175000A579431E98412A0008239A431300A271D9
:1017600001226E08C0B216400F49B04205D00A6887
:101770000192019A226002220FE00E682768029609
:10178000029EF61BA788BE4209D32A40904206D08B
:101790000A680392039A226009225340A371A07938
:1017A0000007C00F05B0F0BDD808002001238079E4
:1017B000184070470923807918400838434258413F
:1017C000C0B27047704784220023920083500432D5
:1017D00083500432835004328350043283500432E5
:1017E00083500432835004328350043283500432D5
:1017F00083500432835004328350043283500432C5
:1018000083500432835004328350043283500432B4
:101810008350704770B5040060200D0000F0F0FBAD
:1018200022000023FC322370A5706370D3609360A4
:10183000064AA3542200FF3293735373D373137475
:10184000034A0133A354013AA35470BD0F020000B0
:1018500059020000F8B507000E0015001400002B17
:101860000ED1F02000F0EAFD631B9E4204DD2078DB
:1018700000F0E4FD0134F7E7F72000F0DFFD07E0BA
:10188000631B9E4204DD207800F0D8FD0134F7E7A9
:1018900000233B70F8BDFFFF0B000A33DBB270B5CD
:1018A00005000C00092B0CD801229A401300054AB0
:1018B000134202D0080000F0C1FDF62C01D1002334
:1018C0002B7070BD7503000070B51E0004AB1B7853
:1018D0000C00013BDBB20F2B02D849B2002902DB1E
:1018E000002303701DE0E02C16D87F250B43154024
:1018F0000278DBB29A4203D00370180000F09EFD1C
:10190000280000F09BFD10239C43C02C09D07F20B1
:10191000304000F093FD04E0F52C02D92100FFF7E0
:10192000BBFF70BD07B5009313000A009021FFF7BD
:10193000CBFF07BD07B5009313000A008021FFF716
:10194000C3FF07BD07B5002300920A00C021FFF7BF
:10195000BBFF07BD07B5009313000A00B021FFF7D6
:10196000B3FF07BD07B5009313000A00A021FFF7DE
:10197000ABFF07BD07B5002300920A00D021FFF797
:10198000A3FF07BD13B57F24CB0923400C40009271
:10199000E0212200FFF798FF13BD802310B59B01C3
:1019A000C918FFF7EFFF10BD10B5054C2000FFF779
:1019B0000AFF044A0449200003F0FCFF10BDC046A2
:1019C0007806002030020020C5170000081CFE2108
:1019D00010B5890503F06CF9011CFE20800503F0A9
:1019E000DDFA011CFE20800503F0B6FD011C03F0AA
:1019F0005FF9FE218905041C03F010F9002801D1CC
:101A0000201C01E0FE20800510BDFFFFF0B5037B28
:101A100085B004000D000193002B2CD0037D002B1A
:101A200029D0080003F040FF2669071C311C03F091
:101A3000E1F8002806D0680003F036FF311C03F0FF
:101A40008BFD15E063681800029303F02DFF311C35
:101A500003F082FD011C381C03F0E0F800280AD0D6
:101A6000029B6D00E81A03F01FFF311C03F020F900
:101A700003F0F8FE0500A769280003F015FF391CE4
:101A800003F06AFD0021061C03F0C8F8331C00288F
:101A900002D180231B06F318181C03F0F1F8256A05
:101AA0000390291C301C03F057FD2B4903F040FC28
:101AB000291C03F0FDF8019B051C2062002B21D09E
:101AC000002103F0ABF8002802D180231B06ED189B
:101AD00023696A460193012301991372281C03F0BC
:101AE00089F8002802D100236A4613726A46127AE6
:101AF000631DDA770199281C03F07CF8002801D0D7
:101B0000381C25E0039803F017FFA16803F010FCD0
:101B1000011C2000FFF75AFF011C301C03F008FCD9
:101B2000391C03F0C5F80026A061311C051C03F028
:101B300061F800280AD16368581E03F0B5FE061C40
:101B4000011C281C03F06AF8002800D0A661A069D7
:101B500003F088FE05B0F0BDCDCCCC3EC36A10B515
:101B600004000363FFF752FF236BE062181A431E61
:101B700098413434207010BD10B50400007800F096
:101B8000E9F801002000FFF7E9FF10BD70B50C1C5B
:101B9000FE2105008905201C03F040F8002807D12C
:101BA0000021201C03F026F8002803D0002401E0C7
:101BB000FE24A405AC6070BDF7B501938023DB0063
:101BC00043608123DB0503610123037500230025A6
:101BD000CFB20362431D0400DD770E0038002900F8
:101BE000009200F031F92900380000F0FBF86B4654
:101BF0001B782660200023730199FFF7C7FF2000A0
:101C0000FEBDFFFF8023F0B51D4A10681840FCD1CF
:101C100072B61C4C2378002B30D01B4B1F681B4B1B
:101C20001A681B4BBA181E681A4B92191D681A4B7A
:101C300052191968194B52181B68194DD21892B2D3
:101C40005208184B2A4392B21A60174B17491B6867
:101C5000174A9C46174B1B6812680F681649634465
:101C60000E6816499B180968DB199B195A1893B21C
:101C70005B082B43124A9BB21360207062B6F0BD22
:101C800024B00340D508002038B003403CB00340E6
:101C900040B0034044B0034048B003404CB0034060
:101CA0000080FFFF2CB0034058B0034064B00340F5
:101CB00060B003405CB0034068B003406CB00340C8
:101CC00030B003401B4B1C4A19781C4B082901D12A
:101CD000002102E00A2903D12E311160132206E00F
:101CE0000C2901D1283100E03C21116012221A6038
:101CF000134B1A78134B002A01D0002200E0012276
:101D00001A60114B1A78114B012A01D880220CE07D
:101D1000042A01D8842208E0082A01D8852204E098
:101D2000102A01D8862200E087221A600122084B7F
:101D30001A7070473502002008B003400CB0034011
:101D4000D708002020B003403602002024B0034012
:101D5000D5080020F8B503000020272B33D81A4AF5
:101D6000D45CFF2C2FD0194B1B78834201D0FFF796
:101D700049FF72B610274022154B144205D01A684D
:101D8000BA431A603F231C4002E01A683A431A60C3
:101D90000123104E104D34602B7062B672B6802253
:101DA0003368134208D00D4B186800232B7062B6BD
:101DB0000B4B1B78184106E02B78002BDBD062B66A
:101DC00001F050FDEAE7F8BDB8600000D50800203A
:101DD0000CB0034000B00340D608002010B0034010
:101DE000D408002010B51A2818D80C2358430C4AE0
:101DF000835810181C7D027A224205D0002901D098
:101E00001A710BE01A7209E043681A68002902D0BF
:101E100003210A4301E002218A431A6010BDC04633
:101E2000E060000000231A280AD80C335843054A02
:101E300083581018007A1B7C0340581E8341DBB284
:101E400018007047E0600000F0B51A282FD80C2267
:101E500017004743164CE5196B682600012901D08D
:101E6000042911D1504334583018257D027A20209E
:101E70002A432275A22252001A601A68042901D14D
:101E8000024313E0824311E038592C7A027DA243C9
:101E900002758022002908D0022902D10422FF32D3
:101EA00004E00022032901D1812252001A60F0BD12
:101EB000E060000072B60C4B1A680C4B18680C4BB3
:101EC0001B6862B65B0104D5322393429B415B429F
:101ED000C018084B9A1A084B5A43FA239B005843E0
:101EE000920D10187047C04618E000E0D808002096
:101EF00004ED00E07FBB00005555010070B5040003
:101F0000FFF7D8FF0500002C0FD0FFF7D3FF074BDA
:101F1000401B984206D9013C002C06D0FA239B00B6
:101F2000ED18F2E701F09EFCEFE770BDE70300005B
:101F300080221E4BD20510B51A60802200201206A6
:101F40001A601B4B1B4918601B4B1C4A1960282345
:101F500013601B4A1B4C13601B4A13601B4A13601F
:101F60001B4A13601B4A1360092222601A4C20602E
:101F70001A4C21601A4C23601A4C23601A4C2260C0
:101F80001A4C20601A4801601A490B601A490B600C
:101F90001A4B1A60FFF796FE3220FFF7AFFF00F0F2
:101FA00043FFAF204000FFF7A9FF10BD00E100E0B4
:101FB00004800340FFBF0000088003400C80034002
:101FC00014800340008003401C80034024800340B1
:101FD0002C80034034800340049003400890034069
:101FE0000C900340149003400090034004A0034071
:101FF00008A003400CA0034014A0034000A003402D
:1020000080212C4AC90013680B43136000232A4A1D
:1020100013702A4A13702A4A13702A4A13702A4AE4
:1020200013702A4B1B78032B0FD004D8002B0FD131
:10203000274A284B0BE0152B04D0192B08D1264A30
:10204000264B04E0224A264B01E0264A264B1A6022
:10205000264B1B78042B11D005D8012B12D1D1228D
:10206000234B92000DE0052B04D0182B0AD1214AF6
:10207000214B06E0D122214B920002E09122204B1D
:1020800092001A601F4BC204D20E1A700022C0B216
:1020900058709A702C32DA70FF231B4A11689943EA
:1020A0000B0040210B4313608022184B52011A6031
:1020B0007047C0463480044065090020E1080020D4
:1020C0006C09002066090020E00800202209002099
:1020D0001303000040A004401304000054D0044047
:1020E00018C004401302000004900440370200208E
:1020F00044A004404404000050D004401CC00440EC
:102100000890044000A006400CE400E000E100E07C
:10211000132110B5164B9A788A431100032202400E
:102120000A43410701D510210A439A700F22104932
:102130000240042A03D140248A7922438A71102163
:102140005A798A43084200D00A4310215A719A7979
:102150008A43840600D50A4305499A71C30506D50A
:1021600020204B780A78DBB202430A704B7010BD16
:1021700000A006402B4B10B51B685B0551D52A4BC0
:102180001B78DBB2002B02D001F06CFBF7E780215B
:10219000264A49011160264AD370264B1B78032B2F
:1021A00012D005D8002B13D10422234BFF320EE0AE
:1021B000152B05D0192B0BD10422204BFF3206E042
:1021C00004221F4BFF3202E004221E4BFF321A6032
:1021D0001D4B1A787F231340042B12D005D8012BF6
:1021E00013D10422194BFF320EE0052B05D0182B1A
:1021F0000BD10422164BFF3206E00422154BFF32AE
:1022000002E00422144BFF321A600023134A1370B9
:10221000134A1370134B1B68002B02D0124A12781A
:102220001A7110BD34800440E008002080E100E015
:1022300000A006402209002040A0044054D00440E1
:1022400018C00440049004403702002044A0044019
:1022500050D004401CC00440089004406509002090
:10226000E1080020DC0800202309002070B50500EB
:102270000C4B1C78E4B2002CFBD128000121FFF7A5
:10228000E3FD28002100FFF7ADFD0C236B43180090
:10229000054A064B815810181960027A044B1A70CF
:1022A00070BDC046E0080020E06000006809002022
:1022B0006409002010B5002901D080231843224C66
:1022C000227890423ED0214B1B685B0539D57F2395
:1022D0001340042B0FD004D8012B0FD100221C4B2C
:1022E0000BE0052B04D0182B08D10022194B04E079
:1022F0000022194B01E00022184B1A6060230029CC
:1023000000D11C3B7F220240042A15D006D8012AA6
:1023100017D1C022920013430D4A11E0052A06D0BE
:10232000182A0ED18022D20013430A4A08E0C022A4
:1023300092001343084A03E0802292001343074AA5
:102340001360207010BDC046370200203480044066
:1023500044A0044050D004401CC0044008900440F5
:10236000194A137883422ED018490968490529D59E
:10237000032B0FD004D8002B0FD115490B600CE0B4
:10238000152B04D0192B08D10021124B04E0002199
:10239000114B01E00021114B196003280FD004D824
:1023A00000280FD10E490A4B0BE0152804D019283C
:1023B00008D10C49074B04E00949074B01E00A49E1
:1023C000064B1960107070472209002034800440C9
:1023D00040A0044054D0044018C00440049004407D
:1023E0001303000013040000130200000E4B70B52D
:1023F0001A680023520515D50C4C1A2811D80C2246
:10240000130043430A490B4D5A58CB181B7A01213C
:1024100022602B70FFF718FD23682A781A720123B7
:1024200000E02360180070BD34800440DC08002008
:10243000E06000002309002000207047F8B51F4B22
:1024400006001B685B0537D51D4B1B68002B02D0AF
:102450001C4A12781A711C4D2C7801343F2C0AD971
:10246000002408E001F06EFA402815DC17490B79CA
:102470005BB2002B04DB164F3B78A342F2D010E096
:102480003B7801333F2B00D90023124AD25CDBB2E8
:10249000D2B2CA713B70EEE7FF28ECDD01F0E2F941
:1024A000E9E701220B4BF6B21E550B4BE4B21A7052
:1024B000064BAB322C70DA70F8BDC0463480044055
:1024C00068090020640900206C09002000A0064073
:1024D00066090020E2080020E008002070B5040032
:1024E0004518AC4204D02078FFF7A8FF0134F8E784
:1024F00070BDFFFF10B5044B1B78002B02D001F01C
:10250000B1F9F8E710BDC046E0080020064B187886
:10251000064BC2B21B78D8B2824201D33F3000E0F2
:102520000138801A7047C0466C09002066090020F7
:10253000054B1878054BC0B21A78D3B2984200D236
:102540004030C01A7047C04665090020E1080020ED
:1025500010B5124B12491A780878D2B2C3B29A4217
:1025600018D001333F2B00D900230E48C45CD8B2E9
:1025700008700D49E4B20968200000290CD093428C
:1025800000D94032D31A20001A2B05DC074B1B78E8
:102590000B7201E00120404210BDC04665090020D9
:1025A000E108002024090020DC0800202309002085
:1025B000084B1A78084B1B78DBB29A4207D00133DC
:1025C0003F2B00D90023054AD05CC0B201E00120B6
:1025D0004042704765090020E108002024090020DE
:1025E000064B074A1B78DBB21370064B1B68002BA7
:1025F00002D0054A12781A727047C046E1080020DE
:1026000065090020DC0800202309002030B5234A9A
:1026100013799B0611D5224BD47918781900013013
:10262000E4B200233F2800DC03001E480078834208
:1026300003D01D48C454DBB20B70D1781748C9B21F
:102640004BB2002B17DA03795BB2002B13DA174B6E
:10265000174C1D782378DBB29D4202D16C23C370E6
:1026600009E001333F2B00D900231248C05CDBB2E4
:10267000C0B2D0712370402319420ED01179194293
:102680000BD000210C4B19700C4B1B688B4202D0F5
:102690000B49097819722C23D37030BD00A0064075
:1026A00065090020E1080020240900206C090020B1
:1026B00066090020E2080020E008002068090020E8
:1026C000640900200223F0B50A4A0B4E1478C8278B
:1026D0002343DB00F518686008480578002D00D119
:1026E000403F09040F43F75001235D405C400570F3
:1026F0001470F0BDE409002000F8FF1F640A0020F8
:10270000431E10B50020042B0ED872B6074A99005C
:102710008858002807D044685B008C50044904881E
:102720005A5A121B5A5262B610BDC046D009002038
:10273000F80B0020431E0020042B09D872B6054A6E
:102740009B009B58002B02D001305B68FAE762B611
:102750007047C046280A0020F8B572B60123174A10
:10276000082594461E00164964465A1EA25C2A4259
:102770001AD05F017C589A00002C05D1CB19083083
:102780005860104BCB5109E03243D2005458002C12
:102790000AD18B18083058600B4B8B500B4A1378BA
:1027A000013B137062B608E00133062BDCD162B640
:1027B0000022064B1A7000F0ADFBF8BD4C62000021
:1027C00000F8FF1F88004000C80040005A0A00209F
:1027D000421E10B5042A30D8022380001843174B3C
:1027E000C0001B1872B6164CA05C03280BD802F070
:1027F00065F816040207052012E0083302200FE0F6
:10280000083304200CE00F48920014580E4B002CA3
:1028100001D1115001E09858416099500CE003201B
:10282000A0540A0008325A60C822180700D4403A5F
:10283000098809040A431A6062B610BD00F8FF1F38
:1028400088090020280A00203C0A0020F7B5B64B72
:102850001C781D000423E4B21C421FD0B34B1B782C
:10286000002B18D0B24A1378DBB2002B05D0013B05
:10287000DBB21370002B00D100BEAE4A1378DBB27E
:10288000002B06D0013BDBB21370002B01D100F00E
:102890005FFE00F001FC0422A34B1A7008222240C4
:1028A00000D157E2A44BA54F1B78DBB29C08E40093
:1028B0001D093C19002D00D0DDE1226863689006F7
:1028C000000F01380C2800D9D1E102F001F8940181
:1028D0009401D001D001D001D001D001D001AD01CF
:1028E000D001D001D0010D001A68954E5B68954962
:1028F000736000230B600121934832602060934C89
:1029000092B22170924C3B61BB610190A24218D8F7
:10291000D020C000824200D3E5E081204000824206
:1029200000D1C2E006D8802A00D1A9E0822A00D1D5
:10293000ABE0F5E0874B9A4200D1C5E0FF33FF33AF
:102940001AE08548824200D152E110D888231B0149
:102950009A4200D18EE080339A4200D0E0E03C0001
:102960003D00B278714B20341A70C03508E07B49C5
:102970008A4200D1CCE07A4B9A4200D112E1CFE0FA
:1029800080222368134203D06068083800F0C2FA3E
:102990000834AC42F4D100242500724BE0580028E2
:1029A00005D04368009300F0B5FA0098F7E76D4B47
:1029B00018516D4BE0506D4BE058002805D043682E
:1029C000009300F0A7FA0098F7E7684B684A18519F
:1029D000684BE0506B00D052674BE85C023803282C
:1029E00007D801F06BFF02040204002200E001227C
:1029F0005A5501350434052DCFD1002301245F4DF4
:102A00002B705F4B5F49621EE3188A5C9B001A7053
:102A100008231A4220D000F05FFA6301002805D095
:102A2000FA1808305060584AFA5003E0F8502B78F2
:102A300001332B7000F050FA0122A3001343DB0096
:102A4000002805D0FA1808305060019AFA5003E0C7
:102A5000F8502B789B182B7002210023A200114301
:102A6000C9007B5003210A438A400134BB50062C25
:102A7000C7D198E02D4B454C1B7823700B0093E099
:102A8000424C2370637002238EE0B288052A47D837
:102A90003E4C9200237063703D4BD2180223127893
:102AA0001A4200D180E021707EE07F23B2881A4074
:102AB000052A35D87388002B32D102203449920080
:102AC00052181178814329E07F23B2881A40052AE1
:102AD00026D87388002B23D102202D49920052184A
:102AE000117801431AE07288B1882A4B5C68002C87
:102AF00016D01888904209D15888884206D1120A07
:102B0000032A01D123784FE01B894DE00C33EDE718
:102B1000214A1168214A1160B178214A117042E0BE
:102B20000F221B4B1A7063E080200740630A0020CD
:102B3000E5090020A00A00209020074000F8FF1FB0
:102B4000500A002070090020C8004000640A0020DC
:102B50008106000002030000212000002122000065
:102B600021230000D009002074090020280A002039
:102B7000F80B00203C0A0020880900205A0A002097
:102B800030C801104C620000880040005B0A002041
:102B9000C020074054620000D80800204C0C0020E0
:102BA000B00A002000231C00F5889D4200D91D00BA
:102BB0002E00402D00D9402620003100FFF782FD75
:102BC000A419AD1B03D12F00402E04D010E04027E4
:102BD000AF4200D92F0020003900FFF773FDE41940
:102BE000ED1B01D1402F03D1764B1C60764B1D802D
:102BF0000122764B3AE07649764A0988914210D113
:102C000000227549985C88540132072AFAD10B6872
:102C1000862B02D1714B08321A7000210800FFF791
:102C200051FD6F4B236022E0664F3E68002E13D0AB
:102C3000654B1C882500402C00D940252900300018
:102C4000FFF740FD641B604BA4B21C80002C01D137
:102C5000402D00D174193C60A0225D4BD200198830
:102C6000914204D100225A709A785E4B1A70012268
:102C7000564B1A706AE008226068013D0838EDB2D0
:102C8000134037D000F046F95749A8004258574B37
:102C9000002A1CD0566846501100585D083161600A
:102CA00003280BD801F00AFE02040608032104E001
:102CB000022102E0052100E0042159550821C82322
:102CC0000C4200D1403B1288120413433DE0585D92
:102CD000032808D801F0F2FD3A3A0204002200E08D
:102CE00001225A5532E008221440621E94410234F7
:102CF0005C552BE02268110C8AB2028000291ED09C
:102D00003B4943804360AB005F583A4E002F01D1EE
:102D1000585001E0F158486037496D00F0506B5A47
:102D2000D2186A5200F0D8F8002802D0083060604B
:102D300005E0324A206013780133137006E008235F
:102D40001C4201D12E4B00E0254B236008222D4B65
:102D50001A707CE5012004421ED002231B49284C36
:102D60000B70294B294E1A70294B1C609C60294C12
:102D70001A61DC600D249A615E60274B1C70FF2392
:102D8000264C2370174C2B702270254A13709F22FB
:102D9000244B1A70087013E063B2002B04DA0D2282
:102DA0001D4B1A7080232B700222144204D01B4941
:102DB0000B78DBB20B702A7010231C4200D02B70F2
:102DC000F7BDC04670090020580A00209420074033
:102DD000500A002021200000440C0020E5090020BA
:102DE000C800400098200740280A002088090020D9
:102DF000D009002074090020F80B00205A0A002096
:102E00008800400080200740E4090020900900204D
:102E100000F8FF1FE8090020C02007408820074075
:102E20008C2007408420074010B501F02BFB0022C6
:102E300011001B4BD150981808324160A82AF9D1D3
:102E400080201849C0020A6802430A601A0A16491B
:102E5000D2B20A701A0C1549D2B20A70144A1B0E6B
:102E60001370FF23134A00201370134A1349137081
:102E7000134A137001220A701249087012490A702D
:102E8000124A116899430B0070210B431360802292
:102E90000F4B52041A6010220E4B1A7010BDC04620
:102EA00000F8FF1F348004409C200740B0200740FA
:102EB000B420074080200740882007409420074026
:102EC00010200740002107408420074018E400E05C
:102ED00000E100E00821074070B572B60B4D2C6888
:102EE000200001F0AFFE1D2802DD62B600200CE0DC
:102EF00080231B06C3409C432C6062B64823584382
:102F0000034B181800230360436070BD3802002093
:102F1000C0F9FF1F10B504000E484821201A01F027
:102F2000E1FC1D2814D80C4B1B78002B07D00B4B51
:102F30001B78002B03D02000FFF70EFC08E072B6D0
:102F400080231B06C340064A11680B43136062B618
:102F500010BDC046C0F9FF1F5A0A0020630A0020B6
:102F60003802002070B50B4C050021783C2908D1AF
:102F7000094B1B68002B04D0002208489847002307
:102F8000237023783B2B03D85A1C2270034AD55454
:102F900070BDC046030C00208C0A0020070C0020E6
:102FA000F8B501231E4D1F4C2B7023680600002B23
:102FB0001DD11D4F1D4B1B78002B2FD00420FFF778
:102FC000B9FB052804D9013F194B002F06D108E0B1
:102FD000FFF782FF20600028F5D008E01A78002A69
:102FE00002D001221A7019E000F03CFCE2E7002256
:102FF0000F4B21681A704B885A1C9B00CB189E609F
:103000000F2A01D84A8007E0402304200B80FFF7F5
:10301000DFFBFFF761FF206000232B70F8BDC04687
:103020006C0A0020840A0020E1420000630A0020AC
:10303000880A002070B504000D000426032D0DD968
:103040002378033D180263781B040343A0783343BD
:1030500000061843FFF7A4FF0334EFE7032D09D15F
:103060002378180263781B04034307200343A078E6
:1030700000060DE0022D06D12078637800021B04C3
:103080001843062304E0012D05D105232078000212
:103090001843FFF785FF70BD10B50A4B1B78002B56
:1030A0000ED1094C216800290AD04B88002B07D08B
:1030B0009B000B800420FFF78BFBFFF70DFF2060C8
:1030C00010BDC0466C0A0020840A0020F8B5814E6D
:1030D000070033683500002B13D17F4B1B78002B82
:1030E00000D1DDE00520FFF70BFB3060002800D1A8
:1030F000D6E00488002C04D1FFF70CFF34602000D8
:10310000E6E0286843889A0892008218946802884A
:103110000433934201D2438005E0FFF7FBFE052014
:10312000FFF7EEFA28600F232500200A1D40060055
:103130002A001E40083A0136062A7AD8002F02D00B
:10314000BE4200D0ACE0220B1340082D0AD1082B60
:1031500000D0A5E00022614B1A70614B1B689342BE
:1031600024D15DE0092D15D1092B00D098E0220E65
:103170005A4B210C002A07D001201870594BD2B2AB
:103180001B68002B14D14BE01A70554B1B68002BA9
:103190000ED145E00A2D0FD10A2B00D080E002228B
:1031A0004E4B1A70504B1B68002B39D0220E210C4D
:1031B000C9B2F0B2984733E00B2D06D10B2B6FD17B
:1031C0000322464B1A70494BEDE70C2D06D10C2B10
:1031D00066D10422414B1A70454B07E00D2D0DD1ED
:1031E0000D2B5DD105223D4B1A70424B1B68002B05
:1031F00016D0210CC9B2F0B2984711E00E2B4FD176
:103200000622364B1A703C4B1A68002A08D0FE235F
:103210006102480E9B01610C19400143F0B29047D6
:10322000364B220C1E70364B240E1A70354B1C7018
:103230004DE0042D08D1C0B2FFF794FE200CC0B2BF
:10324000FFF790FE200E29E06B1F022B1FD8C0B2A3
:10325000FFF788FE052D08D0200CC0B2FFF782FED4
:10326000072D02D1200EFFF77DFE274B244A197847
:10327000117000221A70194B07321A70234B1B6809
:10328000002B24D089B20122214898471FE00F2D3E
:1032900012D11D4B1B78002B04D0C0B2FFF762FE89
:1032A000002015E008220D4B1A701A4B1B68002BEA
:1032B000B6D0C0B29847B3E7022DF1D10922074B2F
:1032C0001A70154B1B68002B01D0200C9847012069
:1032D000F8BDC046900A0020630A0020020C0020BE
:1032E000940A00209C0A0020780A0020980A0020F6
:1032F000700A00207C0A0020740A0020060C0020BE
:10330000040C0020050C0020030C00208C0A002077
:10331000070C0020800A0020680A002070B5114DBB
:103320002B68002B0CD0286843885A1CC3181C7AC1
:1033300003889A4212D3FFF7EDFD00232B600EE0C5
:10334000094B1B78002B02D10120404208E00220EB
:10335000FFF7D6F928600028E5D1F5E74280200084
:1033600070BDC046AC0A0020630A002010B50D4CA9
:103370002368002B03D02268002A0ED103E00A4BF9
:103380001B78002B02D10120404209E00220FFF708
:10339000B7F920600028EED1F5E75388D318187AE2
:1033A00010BDC046AC0A0020630A0020054B5888B7
:1033B000054B1A68002A03D0138852889B1AC0183C
:1033C0007047C046F80B0020AC0A002010B50A4B2D
:1033D0001B78002B0FD0094C2068002803D0FFF782
:1033E00099FD002323600220FFF78AF9002802D00C
:1033F000FFF790FDF7E710BD630A0020AC0A00203C
:10340000314A0123F0B50C00170085B001900291FC
:1034100013700393002C53D02C4D2B68002B25D117
:103420002B4E2C4B1B78DBB2002B01D13B7017E0ED
:103430000320FFF77FF9072809D86B461B7B3B70F9
:10344000FFF74AFD214B186000280FD13870013E6C
:10345000214B002E02D01A78002A04D001221A70C3
:10346000012040422EE000F0FDF9DAE700221A4B7D
:1034700029681A7040234A88981A2300844200D988
:103480000300080008308018D2184A800022E41A8D
:10349000934204D0019EB65C86540132F8E7019A4B
:1034A000D31801934B883F2B06D9402303200B8070
:1034B000FFF78EF900232B600522084B1A70A9E74D
:1034C00002983C7005B0F0BDA10A0020A40A0020BB
:1034D00009750000630A0020A80A0020A00A002045
:1034E00007B56B46D871073301211800FFF788FF35
:1034F0000EBDFFFFF7B5124B1B78002B1FD0012626
:10350000104F114B3C681E700193104D002C09D0D8
:1035100000262E706388210023800320FFF758F9CE
:103520003E6009E0FFF7D8FC011E04D003202C7098
:10353000FFF74EF900E02E700023019A1370F7BDDB
:10354000630A0020A40A0020A10A0020A00A00208B
:1035500070B50E4B1C78E4B2002C15D10C4D2968C7
:10356000002906D04B8803200B80FFF731F92C602F
:103570000AE0FFF7B1FC011E03D00320FFF728F992
:1035800002E00122034B1A7070BDC046A10A002060
:10359000A40A0020A00A0020F0B5002506000F00B4
:1035A0008DB08C680195002C14D021222B0003A92A
:1035B000380000F003F92200202C00D920223368C3
:1035C00003A95B683000AD18A41A9847019B1B182B
:1035D0000193E8E701980DB0F0BDFFFF37B5022574
:1035E00004002A00054901A802F03AFA23682A00DB
:1035F0005B6801A9200098473EBDC04624620000D8
:1036000010B51C00029B401A1B1B5843511A01F0B5
:10361000F3F9001910BD10B50400006802F016FAA5
:10362000200010BD70B504000D000068013102F0EB
:10363000CDFA031E01D0012028C470BD436810B527
:1036400004008B4208D2FFF7EDFF002805D0A368E5
:10365000002B01D122681370012010BDF8B50400C1
:103660000F00151E05D10368002B00D01A7000232F
:103670000CE01100FFF7E2FF061E09D120680028C8
:1036800002D002F0E3F9266000236360A36004E047
:10369000A5603900206802F0B5FA2000F8BD0023CB
:1036A00070B504000D0003604360836003739942AA
:1036B00007D0080002F0AEFA290002002000FFF750
:1036C000CDFF200070BD10B5884203D08A6809681C
:1036D000FFF7C4FF10BD002310B504000360436072
:1036E00083600373FFF7EFFF200010BDF7B51700ED
:1036F0000022036804000E00856800928B4206D801
:103700005A19914203D2CB1A019301230093002F3F
:103710001AD0ED1929002000FFF790FF002813D0E0
:10372000009BA0682168002B09D0019B08183A0073
:10373000C91802F095F900232268535503E00818D0
:10374000310002F05FFAA5602000FEBD1FB5040045
:103750000A22080001A900F049F901A802F05AFA6A
:1037600001A902002000FFF7C1FF200004B010BD36
:103770001FB504000A22080001A900F037F901A8CA
:1037800002F048FA01A902002000FFF7AFFF200075
:1037900004B010BD10B504008A680968FFF7A6FFE1
:1037A000200010BD10B50400FFF7D0FF200010BDB1
:1037B00010B50400FFF7DCFF200010BD70B50D0050
:1037C000002A14D0002912D08168994202D800231F
:1037D0002B700CE0541EC91A8C4200D90C000168F1
:1037E0002200C918280002F01CFA00232B5570BDD6
:1037F00010B5FCF747FEFDF771FB00F033F8FAE770
:1038000010B502F019F910BD10B5FFF7DFFD10BDBE
:1038100010B5FFF76FFE10BD10B5FFF7A7FD10BD87
:1038200010B5FFF77BFD10BD10B5FFF7BFFD10BD54
:1038300010B508001100FFF7E3FD10BD10B508003A
:10384000FFF74EFE10BD70470022FA21034B89009E
:103850001A711A73024A99601A607047B40A0020FC
:103860003062000010B5104C2378002B1BD10133BF
:103870002370FFF79BFD002801D0FFF7E4FFFEF760
:1038800057FE002801D000F0C9FE00F03BFA0028E6
:1038900001D000F063FF00F015FD002801D000F01A
:1038A000FDFF0023237010BDC40A0020024A1368E4
:1038B000013313607047C046D808002070B58025DA
:1038C0008026ED02F6000B4C23682B4201D0FEF758
:1038D000BDFF2368334201D0FEF798FE23681B0525
:1038E00001D500F07DFA2368DB04ECD500F058FD2B
:1038F000E9E7C0463480044010B5FFF7DFFFFFFF63
:103900000022014B1A607047008104407047FFFF9E
:103910000A49030010B50868002B0DD06A46084C10
:10392000C3181219934206D302F05AF80C2303600D
:103930000120404200E00B6010BDC0463C02002068
:1039400000FEFFFFEFF31383002B22D1EFF3108271
:103950001800002A1FD1EFF3058100290FD01000B5
:103960000F290ED90B00103B0B4A9B089B009B189C
:10397000032218680A40D200D040C0B201E0802083
:103980004000EFF31183002B05D0834203D21800CF
:1039900001E001204042704700E400E0F8B5060075
:1039A0000D00170000243900300001F021F80B0051
:1039B0003733DBB2092901D83031CBB230002B5577
:1039C000390000F08FFF061E01D00134EBE72B1900
:1039D00058702B005A1B944206DD1A78295D197025
:1039E0002A550133013CF5E72800F8BD10B50C005D
:1039F000002802DBFFF7D2FF06E02D2340420B70C8
:103A00000131FFF7CBFF200010BDFFFF8021164AD8
:103A1000090113680B4313600023144A14491370FF
:103A2000144A1370144A1370144A1370144A137012
:103A3000144A1160144A31311160144AC104C90E8C
:103A4000C0B21170507093702C33D370104A114B68
:103A500011680B408021C9010B43136080220E4B7B
:103A600092011A607047C04634800440380B002031
:103A700013030000CD0A0020400B0020390B00206A
:103A8000CC0A00200CB0044010B0044000B0064046
:103A90000CE400E0FF00FFFF00E100E0132110B59F
:103AA000164B9A788A431100032202400A434107C9
:103AB00001D510210A439A700F2210490240042AAE
:103AC00003D140248A7922438A7110215A798A438A
:103AD000084200D00A4310215A719A798A43840619
:103AE00000D50A4305499A71C30506D520204B78B5
:103AF0000A78DBB202430A704B7010BD00B006407A
:103B0000124B10B51B681B051ED5114B1B78DBB281
:103B1000002B02D0FFF7A6FEF7E780210D4A8901AE
:103B200011600D4A0D49D3700422FF320A600C491E
:103B30000A600C4A13700C4A13700C4B1B68002B64
:103B400002D00B4A12781A7110BDC046348004406E
:103B5000CC0A002080E100E000B006400CB0044038
:103B600010B00440380B0020CD0A0020C80A002005
:103B7000F60A002070B505000C4B1C78E4B2002C4E
:103B8000FBD128000121FEF75FF928002100FEF794
:103B900029F90C236B431800054A064B815810186D
:103BA0001960027A044B1A7070BDC046CC0A00201E
:103BB000E06000003C0B0020370B0020704770478E
:103BC0000E4B70B51A680023120515D50C4C1A2837
:103BD00011D80C22130043430A490B4D5A58CB18F5
:103BE0001B7A012122602B70FEF72EF923682A78B8
:103BF0001A72012300E02360180070BD3480044075
:103C0000C80A0020E0600000F60A0020002070478B
:103C1000F8B51F4B06001B681B0537D51D4B1B68ED
:103C2000002B02D01C4A12781A711C4D2C780134DA
:103C3000272C0AD9002408E0FFF784FE402815DC71
:103C400017490B795BB2002B04DB164F3B78A3427C
:103C5000F2D010E03B780133272B00D90023124A21
:103C6000D25CDBB2D2B2CA713B70EEE7FF28ECDD6A
:103C7000FFF7F8FDE9E701220B4BF6B21E550B4B9F
:103C8000E4B21A70064BAB322C70DA70F8BDC04645
:103C9000348004403C0B0020370B0020400B0020F8
:103CA00000B00640390B0020CE0A0020CC0A0020CC
:103CB00070B504004518AC4204D02078FFF7A8FF87
:103CC0000134F8E770BDFFFF10B5044B1B78002BE3
:103CD00002D0FFF7C7FDF8E710BDC046CC0A0020B0
:103CE000064B1878064BC2B21B78D8B2824201D379
:103CF000273000E00138801A7047C046400B002092
:103D0000390B0020054B1878054BC0B21A78D3B296
:103D1000984200D24030C01A7047C046380B00208D
:103D2000CD0A002010B5124B12491A780878D2B289
:103D3000C3B29A4218D001333F2B00D900230E485A
:103D4000C45CD8B208700D49E4B2096820000029AB
:103D50000CD0934200D94032D31A20001A2B05DC34
:103D6000074B1B780B7201E00120404210BDC0469A
:103D7000380B0020CD0A0020F70A0020C80A0020D6
:103D8000F60A0020084B1A78084B1B78DBB29A42DF
:103D900007D001333F2B00D90023054AD05CC0B2C5
:103DA00001E0012040427047380B0020CD0A00207E
:103DB000F70A0020064B074A1B78DBB21370064B4C
:103DC0001B68002B02D0054A12781A727047C04651
:103DD000CD0A0020380B0020C80A0020F60A002077
:103DE00030B5234A13799B0611D5224BD479187824
:103DF00019000130E4B200233F2800DC03001E4814
:103E00000078834203D01D48C454DBB20B70D178D4
:103E10001748C9B24BB2002B17DA03795BB2002BFB
:103E200013DA174B174C1D782378DBB29D4202D171
:103E30006C23C37009E00133272B00D900231248FB
:103E4000C05CDBB2C0B2D0712370402319420ED0E7
:103E5000117919420BD000210C4B19700C4B1B68C7
:103E60008B4202D00B49097819722C23D37030BDD4
:103E700000B00640380B0020CD0A0020F70A0020D1
:103E8000400B0020390B0020CE0A0020CC0A002075
:103E90003C0B0020370B00208021204A4901136889
:103EA0000B43136000231E4A13701E4A13701E4AF0
:103EB00013701E4A13701E4A13701E4B1B78062B7C
:103EC00004D0072B05D11C4A1C4B01E01A4A1C4B9D
:103ED0001A601C4B1B78082B05D0142B07D1D1225C
:103EE000194B920002E0D122184B92001A60184B35
:103EF000C204D20E1A700022C0B258709A702C32CE
:103F0000DA70144A144B11680B408021C9030B432B
:103F100013608022114BD2011A6070473480044034
:103F2000B40B0020490B0020BC0B0020B50B002077
:103F3000480B0020400200201303000008C004408A
:103F400010C004404102002014C004400CC00440D2
:103F500000C006400CE400E0FFFF00FF00E100E0CD
:103F6000132110B5164B9A788A43110003220240A0
:103F70000A43410701D510210A439A700F221049C4
:103F80000240042A03D140248A7922438A711021F5
:103F90005A798A43084200D00A4310215A719A790B
:103FA0008A43840600D50A4305499A71C30506D59C
:103FB00020204B780A78DBB202430A704B7010BDA8
:103FC00000C006401E4B10B51B68DB0437D51D4BE7
:103FD0001B78DBB2002B02D0FFF744FCF7E780210F
:103FE000194AC9011160194AD370194B1B78062B65
:103FF00005D0072B07D10422164BFF3202E0042222
:10400000154BFF321A60154B1A787F231340082B8B
:1040100005D0142B07D10422114BFF3202E00422F9
:10402000104BFF321A6000230F4A13700F4A1370AF
:104030000F4B1B68002B02D00E4A12781A7110BD6C
:1040400034800440480B002080E100E000C00640BE
:104050004002002008C0044010C00440410200207B
:1040600014C004400CC00440B40B0020490B0020D5
:10407000440B0020720B002070B505000C4B1C781F
:10408000E4B2002CFBD128000121FDF7DDFE280061
:104090002100FDF7A7FE0C236B431800054A064BD1
:1040A000815810181960027A044B1A7070BDC0460E
:1040B000480B0020E0600000B80B0020B30B00208C
:1040C00010B5002901D080231843154A1478A04266
:1040D00024D0144B1B68DB041FD57F232340082BFF
:1040E00004D0142B05D100240F4B01E000240F4B0A
:1040F0001C606023002900D11C3B7F21014008295E
:1041000006D0142909D1C02189000B43064903E0D8
:10411000C02189000B4305490B60107010BDC046DB
:10412000410200203480044014C004400CC004400C
:104130000E4A1378834218D00D490968C90413D573
:10414000062B04D0072B05D100210A4B01E00021EA
:10415000094B1960062804D0072805D10749054BEB
:1041600001E00649044B19601070704740020020BE
:104170003480044008C0044010C004401303000011
:104180000E4B70B51A680023D20415D50C4C1A28B2
:1041900011D80C22130043430A490B4D5A58CB182F
:1041A0001B7A012122602B70FDF74EFE23682A78CE
:1041B0001A72012300E02360180070BD34800440AF
:1041C000440B0020E0600000720B002000207047CC
:1041D000F8B51F4B06001B68DB0437D51D4B1B6869
:1041E000002B02D01C4A12781A711C4D2C78013415
:1041F000272C0AD9002408E0FFF7A4FB402815DC8F
:1042000017490B795BB2002B04DB164F3B78A342B6
:10421000F2D010E03B780133272B00D90023124A5B
:10422000D25CDBB2D2B2CA713B70EEE7FF28ECDDA4
:10423000FFF718FBE9E701220B4BF6B21E550B4BBB
:10424000E4B21A70064BAB322C70DA70F8BDC0467F
:1042500034800440B80B0020B30B0020BC0B0020BE
:1042600000C00640B50B00204A0B0020480B002080
:1042700070B504004518AC4204D02078FFF7A8FFC1
:104280000134F8E770BDFFFF10B5044B1B78002B1D
:1042900002D0FFF7E7FAF8E710BDC046480B002050
:1042A000064B1878064BC2B21B78D8B2824201D3B3
:1042B000273000E00138801A7047C046BC0B002050
:1042C000B50B0020054B1878054BC0B21A78D3B255
:1042D000984200D24030C01A7047C046B40B00204C
:1042E000490B002010B5124B12491A780878D2B247
:1042F000C3B29A4218D001333F2B00D900230E4895
:10430000C45CD8B208700D49E4B2096820000029E5
:104310000CD0934200D94032D31A20001A2B05DC6E
:10432000074B1B780B7201E00120404210BDC046D4
:10433000B40B0020490B0020730B0020440B00201D
:10434000720B0020084B1A78084B1B78DBB29A429C
:1043500007D001333F2B00D90023054AD05CC0B2FF
:1043600001E0012040427047B40B0020490B0020BF
:10437000730B0020064B074A1B78DBB21370064B09
:104380001B68002B02D0054A12781A727047C0468B
:10439000490B0020B40B0020440B0020720B0020BE
:1043A00030B52C4A13799B0623D52B4BD47918783A
:1043B00019000130E4B200233F2800DC0300274845
:1043C0000078834203D02648C454D8B208702549E7
:1043D000086800280DD024490978C9B28B4201D35E
:1043E0005B1A01E05B1A4033272B02DD1F4B1B7861
:1043F0000371D1781748C9B24BB2002B17DA037991
:104400005BB2002B13DA1A4B174C1D782378DBB202
:104410009D4202D16C23C37009E00133272B00D9E0
:1044200000231448C05CDBB2C0B2D07123704023BB
:1044300019420ED0117919420BD000210E4B197080
:104440000E4B1B688B4202D00D49097819722C2340
:10445000D37030BD00C00640B40B0020490B0020D3
:10446000730B0020440B0020B50B0020720B0020C2
:10447000BC0B00204A0B0020480B0020B80B00208A
:10448000B30B002030B585B072B670224121154BB8
:104490001A70154A1170154A3239117080221A703B
:1044A0001A7852B2002AFBDA114B186862B6114B27
:1044B000984201D80A23584301AC0A222100FFF791
:1044C0006DFA00230C48E15C0500002905D05A0074
:1044D0008218013351800A2BF5D101335B002B7018
:1044E00005B030BD00000240070002400600024057
:1044F000080002407F9698001E03002010B5036854
:10450000C9B21B68984710BD10B50368C9B21B68D3
:10451000984710BD10B50368C9B21B68984710BD15
:1045200010B50368C9B21B68984710BD10B50800E4
:10453000FDF784FF012010BD10B50800FDF77EFFD8
:10454000012010BD70B508000D0001F063FB0400F0
:1045500001002800FDF7C2FF200070BD10B5140057
:1045600008001100FDF7BAFF200010BD10B5FDF7DF
:10457000CDFF10BD10B5FEF733F810BD10B5080023
:10458000FDF75AFF431E9841C0B210BD10B5080098
:10459000FDF72CFF431E9841C0B210BD10B50800B6
:1045A0001100FDF787FE10BD10B50800FDF7D8FE1D
:1045B00010BD10B50800FDF759FE10BD10B5FDF790
:1045C000D9FD10BD10B5044B4808C01800F08AF999
:1045D000FDF716FD10BDC046C0C62D0010B5140075
:1045E000054B4808C01800F07DF9FDF709FD2000D3
:1045F000FDF78EFD10BDC046C0C62D0010B5FDF7FD
:1046000079FF10BD10B5FDF7D3FF10BD10B5FDF754
:104610009FFF10BD10B5FDF78BFF10BD7047FFFF6A
:104620000022FA21034B89001A711A73024A996019
:104630001A607047C00B0020B062000010B503681C
:10464000C9B21B68984710BD10B50368C9B21B6892
:10465000984710BD10B50368C9B21B68984710BDD4
:1046600010B50368C9B21B68984710BD10B50800A3
:10467000FFF7CEFA012010BD10B50800FFF7C8FA09
:10468000012010BD70B508000D0001F0C3FA040050
:1046900001002800FFF70CFB200070BD10B51400CE
:1046A00008001100FFF704FB200010BD10B5FFF754
:1046B00017FB10BD10B5FFF77DFB10BD10B508004E
:1046C000FFF7A4FA431E9841C0B210BD10B5080010
:1046D000FFF776FA431E9841C0B210BD10B508002E
:1046E0001100FFF76BFA10BD10B50800FFF767FA6D
:1046F00010BD10B50800FFF73DFA10BD10B5FFF76B
:10470000FFF910BD10B5044B4808C01800F0EAF8D6
:10471000FFF77CF910BDC04660E3160010B5140029
:10472000054B4808C01800F0DDF8FFF76FF92000CE
:10473000FFF7B4F910BDC04660E3160010B5FFF7EF
:10474000C3FA10BD10B5FFF71DFB10BD10B5FFF784
:10475000E9FA10BD10B5FFF7D5FA10BD7047FFFF9D
:104760000022FA21034B89001A711A73024A9960D8
:104770001A607047D00B00201063000010B503686A
:10478000C9B21B68984710BD10B50368C9B21B6851
:10479000984710BD10B50368C9B21B68984710BD93
:1047A00010B50368C9B21B68984710BD10B5080062
:1047B000FFF70EFD012010BD10B50800FFF708FD42
:1047C000012010BD70B508000D0001F023FA0400AF
:1047D00001002800FFF74CFD200070BD10B514004B
:1047E00008001100FFF744FD200010BD10B5FFF7D1
:1047F00057FD10BD10B5FFF7BDFD10BD10B5080089
:10480000FFF7E4FC431E9841C0B210BD10B508008C
:10481000FFF7B6FC431E9841C0B210BD10B50800AA
:104820001100FFF74DFC10BD10B50800FFF780FC2C
:1048300010BD10B50800FFF71FFC10BD10B5FFF745
:10484000C1FB10BD10B5044B4808C01800F04AF871
:10485000FFF722FB10BDC04660E3160010B5140040
:10486000054B4808C01800F03DF8FFF715FB200085
:10487000FFF776FB10BDC04660E3160010B5FFF7EA
:1048800003FD10BD10B5FFF75DFD10BD10B5FFF7BE
:1048900029FD10BD10B5FFF715FD10BD7047FFFFD6
:1048A0000022FA21034B89001A711A73024A996097
:1048B0001A607047E00B00207063000002B471467C
:1048C00049084900095C49008E4402BC7047C04653
:1048D00003B47146490840004900095A49008E4412
:1048E00003BC7047002243088B4274D303098B42F8
:1048F0005FD3030A8B4244D3030B8B4228D3030CB0
:104900008B420DD3FF22090212BA030C8B4202D351
:104910001212090265D0030B8B4219D300E0090A79
:10492000C30B8B4201D3CB03C01A5241830B8B4282
:1049300001D38B03C01A5241430B8B4201D34B036B
:10494000C01A5241030B8B4201D30B03C01A5241D0
:10495000C30A8B4201D3CB02C01A5241830A8B4255
:1049600001D38B02C01A5241430A8B4201D34B023E
:10497000C01A5241030A8B4201D30B02C01A5241A2
:10498000CDD2C3098B4201D3CB01C01A5241830956
:104990008B4201D38B01C01A524143098B4201D390
:1049A0004B01C01A524103098B4201D30B01C01ABB
:1049B0005241C3088B4201D3CB00C01A5241830835
:1049C0008B4201D38B00C01A524143088B4201D362
:1049D0004B00C01A5241411A00D2014652411046C2
:1049E0007047FFE701B5002000F0F0F802BDC046B7
:1049F0000029F7D076E7704703460B437FD40022A7
:104A000043088B4274D303098B425FD3030A8B4262
:104A100044D3030B8B4228D3030C8B420DD3FF22CC
:104A2000090212BA030C8B4202D31212090265D09A
:104A3000030B8B4219D300E0090AC30B8B4201D34D
:104A4000CB03C01A5241830B8B4201D38B03C01A94
:104A50005241430B8B4201D34B03C01A5241030B0B
:104A60008B4201D30B03C01A5241C30A8B4201D3BC
:104A7000CB02C01A5241830A8B4201D38B02C01A67
:104A80005241430A8B4201D34B02C01A5241030ADE
:104A90008B4201D30B02C01A5241CDD2C3098B42C3
:104AA00001D3CB01C01A524183098B4201D38B0140
:104AB000C01A524143098B4201D34B01C01A5241E3
:104AC00003098B4201D30B01C01A5241C3088B4228
:104AD00001D3CB00C01A524183088B4201D38B0013
:104AE000C01A524143088B4201D34B00C01A5241B5
:104AF000411A00D201465241104670475DE0CA0F8C
:104B000000D04942031000D34042534000229C464B
:104B100003098B422DD3030A8B4212D3FC22890155
:104B200012BA030A8B420CD3890192118B4208D32B
:104B3000890192118B4204D389013AD0921100E08D
:104B40008909C3098B4201D3CB01C01A52418309A1
:104B50008B4201D38B01C01A524143098B4201D3CE
:104B60004B01C01A524103098B4201D30B01C01AF9
:104B70005241C3088B4201D3CB00C01A5241830873
:104B80008B4201D38B00C01A5241D9D243088B42C9
:104B900001D34B00C01A5241411A00D2014663466C
:104BA00052415B10104601D34042002B00D54942D0
:104BB000704763465B1000D3404201B5002000F00F
:104BC00005F802BD0029F8D016E770477047C046C7
:104BD0008446081C6146FFE71FB500F065FB00280E
:104BE00001D40021C8421FBD10B500F0F1FA4042C7
:104BF000013010BD10B500F057FB002801DB00208C
:104C000010BD012010BDC04610B500F04DFB0028BE
:104C100001DD002010BD012010BDC04610B500F020
:104C2000FFFA002801DC002010BD012010BDC046A5
:104C300010B500F0F5FA002801DA002010BD0120BF
:104C400010BDC0461C2101231B04984201D3000C57
:104C500010391B0A984201D3000A08391B099842EF
:104C600001D30009043902A2105C40187047C04605
:104C70000403020201010101000000000000000025
:104C80009E2110B5C905041CFFF7D2FF002803D1EF
:104C9000201C00F0E7FD10BD9E21201CC90500F07E
:104CA0005BFC00F0DFFD80231B069C466044F2E7BE
:104CB000F8B54A02430244004E00C50F240E2800F6
:104CC0009B09360EC90F92098D4259D0A01B0028AE
:104CD00000DC8DE0002E1AD1002A00D079E05A07BE
:104CE00004D00F221A40042A00D004335A0138D5C8
:104CF0000134FF2C00D189E028009B015B0AE4B25B
:104D00005B02E4055B0A2343C0071843F8BDFF2C90
:104D1000E5D08021C9040A431B2800DD89E0160084
:104D20002021C640081A8240511E8A4132439B1AF4
:104D30005A0114D59B019E093000FFF783FF053807
:104D40008640844265DC041B330020200134E340AC
:104D5000041BA640721E964100243343BFE75A0746
:104D6000BFD1DF082800FF2C2FD1002F00D187E012
:104D70008022D20313003B435B025B0AFF24BFE7A0
:104D8000A11B002949DD002E29D0FF2CA7D08026A9
:104D9000F60432431B2900DD8DE017002026CF40AA
:104DA000711A8A40511E8A413A439B185A01D6D53E
:104DB0000134FF2C64D0012276491A405B080B4075
:104DC00013438CE7031ECAD100207B025B0AE4B2C6
:104DD00096E701380028AAD0FF2C9DD17FE7002A52
:104DE00000D17CE701390029DFD0FF2CD2D176E752
:104DF000002820D1601CC0B2012853DD80279E1AF4
:104E0000FF0437402FD0D61A0D0095E72800002365
:104E100076E7614B241A334061E700294DD1611CCC
:104E2000CEB2012E2FDDFF292AD09B185B080C0083
:104E300055E701227BE7002C1BD1002B5BD0C04340
:104E400000280CD0FF2E7ED01B2800DD92E01D0034
:104E50002024C540201A8340581E83412B43D31A77
:104E600034000D0064E7002E00D065E70020002428
:104E7000ABE7FF2E67D08024E40440422343E3E7FE
:104E8000FF2400233CE7002C61D1002B7ED0002AB8
:104E900000D124E79B185A0100D460E73E4A0C0079
:104EA00013401CE7002C1ED1002B2FD1002A66D006
:104EB00013000D0013E7012277E7002C1FD1002B10
:104EC0005AD0C94300290BD0FF2E50D01B295FDCDC
:104ED0001F002024CF40611A8B40591E8B413B4359
:104EE0009B18340062E7002B1CD1002A4AD0130023
:104EF0000D00FF24F3E6130034000D00EFE6FF2E53
:104F000035D08024E40449422343DFE7002A00D15E
:104F1000E5E68027981AFF04074000D152E7D31A2C
:104F20000D00DCE6FF24002A00D1D8E68020DB0853
:104F3000C003034204D0D208024201D113000D0085
:104F4000DB00FF24CBE61300FF240D00C7E6002B97
:104F50000DD0FF24002A00D1C1E68021DB08C9035F
:104F60000B42EDD0D2080A42EAD11300E8E7130061
:104F7000FF24B4E6012372E713003400AFE60027F4
:104F8000002022E780270020FF03F1E61300A6E6B9
:104F90000123A5E7FFFFFF7DFFFFFFFBF0B55646AE
:104FA00044465F464D46F0B444024600C70F83B006
:104FB0008846650A360EBA463DD0FF2E22D0002321
:104FC000EC00802599469B46ED0425437F3E4346F1
:104FD0005C025800DB0F640A000E984636D0FF28AA
:104FE00030D080230021E400DB041C437F38301ADA
:104FF0000190484642460843724E800030587A403D
:1050000013008746002D44D108239946063B9B4652
:10501000DDE70122FF2000241A406402C305640A70
:10502000D2071C431443200003B03CBC9046994671
:10503000A246AB46F0BD002D20D104239946033B88
:105040009B46C4E7002C17D1022102E0002C0AD1B4
:105050000121321A01924A4643460A435A489200B5
:1050600082587B4097462000FFF7ECFD431F7630C7
:105070009C4040420021BAE70321B8E72800FFF72F
:10508000E1FD431F9D4000237630464299469B46F2
:105090009DE70C239946093B9B4698E78024002214
:1050A000E403FF20B9E70024C2468B465A46534624
:1050B000022AAED0032A7DD0012A31D1012200205C
:1050C0001A400024A9E70122101A1B2856DD1A40B5
:1050D00000200024A1E78023DB031D424BD1802365
:1050E000DB032B435C02640A3A00FF2095E76D0165
:1050F0006001854230D2019A0024013A01921B22BC
:105100000127290064006D00002901DBA84201D8B5
:105110002D1A3C43013A002AF3D16A1E95412C43D3
:1051200001987F300028CEDD620704D00F22224094
:10513000042A00D00434220103D5244A01981440E3
:105140008030FE2800DD64E70122A401640AC0B2B9
:105150001A4062E72C00A9E72D1A1A220124CFE792
:105160006B02BCD500248023DB031C436402640A69
:105170004246FF2051E71C42B3D1F4E72100202230
:10518000C140101A8440621E94410C43620704D04F
:105190000F222240042A00D00434620104D50122E7
:1051A00001201A40002438E70122A401640A1A40B1
:1051B000002032E78023DB031C436402640A52466A
:1051C000FF202AE7C863000008640000FFFFFFF724
:1051D000430270B542004C005D0AC30F4802120E34
:1051E000460A240EC90FFF2A0FD0FF2C11D0012030
:1051F000A24200D070BDB542FCD18B420DD0002A36
:10520000F8D12800431E9841F4E70120002DF1D188
:10521000EBE70120002EEDD1E9E70020EAE7C046E8
:105220004302F0B542005D0AC30F4802440A480039
:10523000120E000EC90FFF2A1FD0FF2822D0002A0D
:1052400009D16E426E4100280FD1002C0DD10020F3
:10525000002D09D005E0002801D1002C01D08B429F
:1052600013D0584201231843F0BD002EF7D0484216
:105270004141012049420843F6E7002DDDD00220DC
:105280004042F1E7002CDAD0F9E78242E9DC04DBA6
:10529000A542E6D80020A542E6D25842434101206B
:1052A0005B421843E0E7C0464302F0B542004C00C1
:1052B0005E0AC30F4802120E450A240EC90FFF2AC8
:1052C00017D0FF2C19D0002A0BD170427041002C4E
:1052D00017D0002807D048424141012049420843E5
:1052E000F0BD002C13D08B4214D058420123184338
:1052F000F6E70220002EF3D1E3E70220002DEFD1E4
:10530000E1E7002DE5D10020002EE9D0EDE7002DEA
:10531000E9D1EAE7A242E8DC04DBAE42E5D80020AE
:10532000AE42DDD25842434101205B421843D7E7E9
:10533000F0B557464E4645464300E0B4460288461F
:10534000760A1F0EC40F002F47D0FF2F25D0002351
:1053500080259A469946F600ED042E437F3F43464A
:1053600042465D02D20F5B006D0A1B0E904640D094
:10537000FF2B39D080220020ED00D20415437F3B63
:10538000FB1842465746591C62408C4607430F2F74
:105390005CD86F49BF00C9598F46002E45D10823FC
:1053A0009A46063B9946DAE7424602282DD0032862
:1053B00000D1C3E0012800D0A2E000250026024071
:1053C000D4B27602ED05760A2E43E4072643300078
:1053D0001CBC90469946A246F0BD002E1AD104236B
:1053E0009A46033B9946BAE72A00511E8A41901C0F
:1053F000C6E70120002DC3D02800FFF723FC431F80
:1054000076309D4043420020BAE70124FF25144036
:105410000026D6E73000FFF715FC431F9E4000230F
:10542000763047429A46994699E70C239A46093BBB
:10543000994694E780260024F603FF25C1E735004E
:105440004846B2E7350022004846AEE72904090C79
:105450000800370C3604360C2C0C79437043674334
:105460007443060C64183619B14203D980214902ED
:10547000884647440004000C310409188D01681E59
:105480008541890E2943350CED19AD010D432901E4
:1054900004D5012369081D4063460D4319007F317F
:1054A000002925DD680704D00F202840042800D0FB
:1054B0000435280103D5274980330D401900FE2902
:1054C000A3DC0124AD016E0A1440CDB279E780203F
:1054D000C003064207D0054205D128434602760A9A
:1054E0004446FF256DE706437602760AFF2568E706
:1054F0000124611A1B2905DD14400025002660E700
:105500006346CBE72E002023CE40591A8D406B1EF8
:105510009D412E43730704D00F233340042B00D04A
:105520000436730104D5012401251440002648E700
:105530000124B601760A1440002542E780260124A2
:10554000F6032E437602760A1440FF2539E7C0465B
:1055500048640000FFFFFFF7F8B54A024E0043021F
:105560004400240EC50F9B09360EC90F9209FF2E69
:1055700000D183E001204140A01BA9425CD000285B
:1055800000DC95E0002E1CD1002A00D081E05A07F3
:1055900004D00F221A40042A00D004335A013BD50C
:1055A0000134FF2C00D191E001209B015B0AE4B2A1
:1055B00005405B02E4055B0AED0723432B4318001B
:1055C000F8BDFF2CE3D08021C9040A431B2800DD6D
:1055D00090E016002021C640081A8240511E8A41E0
:1055E00032439B1A5A0115D59B019E093000FFF7E3
:1055F00029FB0538864084426CDC041B33002020E4
:105600000134E340041BA640721E9641002433433C
:10561000BDE70D005A07BCD1DF0801231D40FF2C58
:1056200033D1002F00D190E08022D20313003B43FE
:105630005B025B0AFF24BCE700284FDD002E2ED062
:10564000FF2CA4D08025ED042A431B2800DD97E021
:1056500016002025C640281A8240501E824132433F
:105660009B185A01D5D50134FF2C6DD001227B48FF
:105670001A405B08034013430D0088E7002A00D05E
:105680007AE777E7031EC5D100257B025B0AE4B207
:105690008FE701380028A4D0FF2C97D177E7002AA4
:1056A00000D174E701380028DAD0FF2CCDD16EE7A5
:1056B000002821D1601CC0B2012858DD80279E1A25
:1056C000FF0437402FD0D61A0D008FE701231D406D
:1056D00000236EE7624B241A334058E7002851D16B
:1056E000601CC6B2012E33DDFF282DD09B185B084D
:1056F00004004CE7012274E7002C1AD0FF2E1FD0C3
:105700008024E404404223431B2800DD96E01D0072
:105710002024C540201A8340581E83412B43D31AAE
:1057200034000D005EE7002E00D05FE70025002466
:10573000ABE7002B44D0C0430028F0D0FF2EE3D1CC
:105740001300FF240D0022E70D00FF24002330E7A3
:10575000002C5DD1002B7DD0002A00D117E79B18CB
:105760005A0100D456E73E4A040013400FE7002CCC
:105770001ED1002B2FD1002A65D013000D0006E7A3
:1057800001226DE7002C1FD1002B59D0C043002807
:105790000BD0FF2E4FD01B285EDC1D002024C540FF
:1057A000201A8340581E83412B439B18340058E72E
:1057B000002B1CD1002A49D013000D00FF24E6E67F
:1057C000130034000D00E2E6FF2E34D08024E40400
:1057D00040422343DFE7002A00D1D8E68027981A09
:1057E000FF04074000D14DE7D31A0D00CFE6FF2498
:1057F000002A00D1CBE68020DB08C003034204D09E
:10580000D208024201D113000D00DB00FF24BEE6E6
:10581000002B10D0FF24002A00D1B8E68020DB083E
:10582000C003034203D0D208024200D11300DB00C0
:105830000D00FF24ABE61300FF24A8E601236EE76A
:1058400013003400A3E6002700251EE7802700256B
:10585000FF03E9E613009AE60123A6E7FFFFFF7DB9
:10586000FFFFFFFB4302590A4300C20F1B0E00203B
:105870007E2B0EDD9D2B0DDC802000040143952B3B
:105880000BDC9620C31AD9400B005842002A00D1E5
:1058900018007047034BD018FBE7963B99400B006C
:1058A000F3E7C046FFFFFF7F70B5002830D0C31775
:1058B000C5185D40C40F2800FFF7C4F99E231B1ACA
:1058C000962B0DDC9622D21A95406A02520AD8B263
:1058D0005202C005520AE40702432243100070BD81
:1058E000992B19DC9922D21A9540124A2A4069074D
:1058F00004D00F210D40042D00D00432510103D5F6
:105900000C4B1A409F231B1A9201520AD8B2DFE7B0
:10591000002400200022DBE705222E00121AB92104
:10592000D6402A00C91A8A40551EAA41350015439F
:10593000DBE7C046FFFFFFFB70B5041E28D0FFF772
:1059400081F99E231B1A962B0ADC9622D21A9440C8
:105950006202520AD8B25202520AC005104370BD08
:10596000992B18DC9922D21A9440114A22406107DF
:1059700004D00F210C40042C00D00432510103D577
:105980000B4B1A409F231B1A9201520AD8B2E2E72E
:1059900000200022DFE705222500121AB921D54098
:1059A0002200C91A8A40541EA2412C001443DCE78D
:1059B000FFFFFFFB0B0010B50100180000F002F81C
:1059C00010BDFFFF70B5054C05001300201E04D06C
:1059D0000A000220290000E000BF70BD00000000A6
:1059E000014B18687047C046940300200E4B70B5F9
:1059F00000251E000D4CE41AA410A54204D0AB00F3
:105A0000F35898470135F8E700F06EFD084B002584
:105A10001E00084CE41AA410A54204D0AB00F358B1
:105A200098470135F8E770BDF4640000F4640000A5
:105A3000F46400001465000010B5034B0100186801
:105A400000F064F810BDC0469403002010B5034B6D
:105A50000100186800F00EF810BDC0469403002045
:105A6000002310B59A4203D0CC5CC4540133F9E74B
:105A700010BDFFFF70B50500002944D00C1F23683E
:105A8000002B00DAE418280000F0DEF81E4A136844
:105A90001100002B02D16360146031E0A3420DD9E4
:105AA0002268A018834203D118685B6882182260BC
:105AB00063600C6024E0A24203D813005A68002AF5
:105AC000F9D11E689819A0420BD121687118581895
:105AD0001960824214D110685268411819605A60E6
